{
  "contractName": "KittyMarketPlace",
  "abi": [
    {
      "inputs": [
        {
          "internalType": "address",
          "name": "_kittyContractAddress",
          "type": "address"
        }
      ],
      "payable": false,
      "stateMutability": "nonpayable",
      "type": "constructor"
    },
    {
      "anonymous": false,
      "inputs": [
        {
          "indexed": false,
          "internalType": "string",
          "name": "TxType",
          "type": "string"
        },
        {
          "indexed": false,
          "internalType": "address",
          "name": "owner",
          "type": "address"
        },
        {
          "indexed": false,
          "internalType": "uint256",
          "name": "tokenId",
          "type": "uint256"
        }
      ],
      "name": "MarketTransaction",
      "type": "event"
    },
    {
      "constant": true,
      "inputs": [],
      "name": "_owner",
      "outputs": [
        {
          "internalType": "address",
          "name": "",
          "type": "address"
        }
      ],
      "payable": false,
      "stateMutability": "view",
      "type": "function"
    },
    {
      "constant": true,
      "inputs": [],
      "name": "isOwner",
      "outputs": [
        {
          "internalType": "bool",
          "name": "",
          "type": "bool"
        }
      ],
      "payable": false,
      "stateMutability": "view",
      "type": "function"
    },
    {
      "constant": false,
      "inputs": [
        {
          "internalType": "address",
          "name": "_kittyContractAddress",
          "type": "address"
        }
      ],
      "name": "setKittyContract",
      "outputs": [],
      "payable": false,
      "stateMutability": "nonpayable",
      "type": "function"
    },
    {
      "constant": true,
      "inputs": [
        {
          "internalType": "uint256",
          "name": "_tokenId",
          "type": "uint256"
        }
      ],
      "name": "getOffer",
      "outputs": [
        {
          "internalType": "address",
          "name": "seller",
          "type": "address"
        },
        {
          "internalType": "uint256",
          "name": "price",
          "type": "uint256"
        },
        {
          "internalType": "uint256",
          "name": "index",
          "type": "uint256"
        },
        {
          "internalType": "uint256",
          "name": "tokenId",
          "type": "uint256"
        },
        {
          "internalType": "bool",
          "name": "active",
          "type": "bool"
        }
      ],
      "payable": false,
      "stateMutability": "view",
      "type": "function"
    },
    {
      "constant": false,
      "inputs": [],
      "name": "getAllTokenOnSale",
      "outputs": [
        {
          "internalType": "uint256[]",
          "name": "listOfOffers",
          "type": "uint256[]"
        }
      ],
      "payable": false,
      "stateMutability": "nonpayable",
      "type": "function"
    },
    {
      "constant": false,
      "inputs": [
        {
          "internalType": "uint256",
          "name": "_price",
          "type": "uint256"
        },
        {
          "internalType": "uint256",
          "name": "_tokenId",
          "type": "uint256"
        }
      ],
      "name": "setOffer",
      "outputs": [],
      "payable": false,
      "stateMutability": "nonpayable",
      "type": "function"
    },
    {
      "constant": false,
      "inputs": [
        {
          "internalType": "uint256",
          "name": "_tokenId",
          "type": "uint256"
        }
      ],
      "name": "removeOffer",
      "outputs": [],
      "payable": false,
      "stateMutability": "nonpayable",
      "type": "function"
    },
    {
      "constant": false,
      "inputs": [
        {
          "internalType": "uint256",
          "name": "_tokenId",
          "type": "uint256"
        }
      ],
      "name": "buyKitty",
      "outputs": [],
      "payable": true,
      "stateMutability": "payable",
      "type": "function"
    }
  ],
  "bytecode": "0x608060405234801561001057600080fd5b5060405161140f38038061140f8339818101604052602081101561003357600080fd5b8101908080519060200190929190505050336000806101000a81548173ffffffffffffffffffffffffffffffffffffffff021916908373ffffffffffffffffffffffffffffffffffffffff1602179055506100938161009960201b60201c565b506101b4565b6100a761015d60201b60201c565b610119576040517f08c379a00000000000000000000000000000000000000000000000000000000081526004018080602001828103825260208152602001807f4f776e61626c653a2063616c6c6572206973206e6f7420746865206f776e657281525060200191505060405180910390fd5b80600160006101000a81548173ffffffffffffffffffffffffffffffffffffffff021916908373ffffffffffffffffffffffffffffffffffffffff16021790555050565b60008060009054906101000a900473ffffffffffffffffffffffffffffffffffffffff1673ffffffffffffffffffffffffffffffffffffffff163373ffffffffffffffffffffffffffffffffffffffff1614905090565b61124c806101c36000396000f3fe60806040526004361061007b5760003560e01c8063941b055b1161004e578063941b055b1461020757806395a0f9c71461024c578063ae5310f614610287578063b2bdfa7b146102b55761007b565b80634579268a1461008057806349b3709f1461011b57806362b7f94e146101875780638f32d59b146101d8575b600080fd5b34801561008c57600080fd5b506100b9600480360360208110156100a357600080fd5b810190808035906020019092919050505061030c565b604051808673ffffffffffffffffffffffffffffffffffffffff1673ffffffffffffffffffffffffffffffffffffffff168152602001858152602001848152602001838152602001821515151581526020019550505050505060405180910390f35b34801561012757600080fd5b5061013061041b565b6040518080602001828103825283818151815260200191508051906020019060200280838360005b83811015610173578082015181840152602081019050610158565b505050509050019250505060405180910390f35b34801561019357600080fd5b506101d6600480360360208110156101aa57600080fd5b81019080803573ffffffffffffffffffffffffffffffffffffffff169060200190929190505050610532565b005b3480156101e457600080fd5b506101ed6105f0565b604051808215151515815260200191505060405180910390f35b34801561021357600080fd5b5061024a6004803603604081101561022a57600080fd5b810190808035906020019092919080359060200190929190505050610647565b005b34801561025857600080fd5b506102856004803603602081101561026f57600080fd5b8101908080359060200190929190505050610a4f565b005b6102b36004803603602081101561029d57600080fd5b8101908080359060200190929190505050610cda565b005b3480156102c157600080fd5b506102ca611051565b604051808273ffffffffffffffffffffffffffffffffffffffff1673ffffffffffffffffffffffffffffffffffffffff16815260200191505060405180910390f35b60008060008060006003600087815260200190815260200160002060040160009054906101000a900460ff166103aa576040517f08c379a00000000000000000000000000000000000000000000000000000000081526004018080602001828103825260198152602001807f6e6f20616374697665206f6666657220666f7220746f6b656e0000000000000081525060200191505060405180910390fd5b60006003600088815260200190815260200160002090508060000160009054906101000a900473ffffffffffffffffffffffffffffffffffffffff1695508060010154945080600201549350806003015492508060040160009054906101000a900460ff1691505091939590929450565b60606000600280549050905060008114156104695760006040519080825280602002602001820160405280156104605781602001602082028038833980820191505090505b5091505061052f565b60608160405190808252806020026020018201604052801561049a5781602001602082028038833980820191505090505b50905060008090505b828110156105285760011515600282815481106104bc57fe5b906000526020600020906005020160040160009054906101000a900460ff161515141561051b57600281815481106104f057fe5b90600052602060002090600502016003015482828151811061050e57fe5b6020026020010181815250505b80806001019150506104a3565b5080925050505b90565b61053a6105f0565b6105ac576040517f08c379a00000000000000000000000000000000000000000000000000000000081526004018080602001828103825260208152602001807f4f776e61626c653a2063616c6c6572206973206e6f7420746865206f776e657281525060200191505060405180910390fd5b80600160006101000a81548173ffffffffffffffffffffffffffffffffffffffff021916908373ffffffffffffffffffffffffffffffffffffffff16021790555050565b60008060009054906101000a900473ffffffffffffffffffffffffffffffffffffffff1673ffffffffffffffffffffffffffffffffffffffff163373ffffffffffffffffffffffffffffffffffffffff1614905090565b6106513382611076565b6106a6576040517f08c379a00000000000000000000000000000000000000000000000000000000081526004018080602001828103825260228152602001806111f66022913960400191505060405180910390fd5b6003600082815260200190815260200160002060040160009054906101000a900460ff1615610720576040517f08c379a000000000000000000000000000000000000000000000000000000000815260040180806020018281038252602e8152602001806111c8602e913960400191505060405180910390fd5b3073ffffffffffffffffffffffffffffffffffffffff16600160009054906101000a900473ffffffffffffffffffffffffffffffffffffffff1673ffffffffffffffffffffffffffffffffffffffff1663081812fc836040518263ffffffff1660e01b81526004018082815260200191505060206040518083038186803b1580156107aa57600080fd5b505afa1580156107be573d6000803e3d6000fd5b505050506040513d60208110156107d457600080fd5b810190808051906020019092919050505073ffffffffffffffffffffffffffffffffffffffff161461080557600080fd5b61080d61115c565b6040518060a001604052803373ffffffffffffffffffffffffffffffffffffffff16815260200184815260200160028054905081526020018381526020016001151581525090506002819080600181540180825580915050906001820390600052602060002090600502016000909192909190915060008201518160000160006101000a81548173ffffffffffffffffffffffffffffffffffffffff021916908373ffffffffffffffffffffffffffffffffffffffff16021790555060208201518160010155604082015181600201556060820151816003015560808201518160040160006101000a81548160ff021916908315150217905550505050806003600084815260200190815260200160002060008201518160000160006101000a81548173ffffffffffffffffffffffffffffffffffffffff021916908373ffffffffffffffffffffffffffffffffffffffff16021790555060208201518160010155604082015181600201556060820151816003015560808201518160040160006101000a81548160ff0219169083151502179055509050507fd99e4fad9ad6313b1feb588fa8e605e3a9873172f2024330c35dd2b4041a4386338360405180806020018473ffffffffffffffffffffffffffffffffffffffff1673ffffffffffffffffffffffffffffffffffffffff1681526020018381526020018281038252600c8152602001807f437265617465206f666665720000000000000000000000000000000000000000815250602001935050505060405180910390a1505050565b610a5761115c565b600360008381526020019081526020016000206040518060a00160405290816000820160009054906101000a900473ffffffffffffffffffffffffffffffffffffffff1673ffffffffffffffffffffffffffffffffffffffff1673ffffffffffffffffffffffffffffffffffffffff1681526020016001820154815260200160028201548152602001600382015481526020016004820160009054906101000a900460ff16151515158152505090503373ffffffffffffffffffffffffffffffffffffffff16816000015173ffffffffffffffffffffffffffffffffffffffff1614610b8e576040517f08c379a00000000000000000000000000000000000000000000000000000000081526004018080602001828103825260248152602001806111a46024913960400191505060405180910390fd5b60036000838152602001908152602001600020600080820160006101000a81549073ffffffffffffffffffffffffffffffffffffffff02191690556001820160009055600282016000905560038201600090556004820160006101000a81549060ff0219169055505060006002826040015181548110610c0a57fe5b906000526020600020906005020160040160006101000a81548160ff0219169083151502179055507fd99e4fad9ad6313b1feb588fa8e605e3a9873172f2024330c35dd2b4041a4386338360405180806020018473ffffffffffffffffffffffffffffffffffffffff1673ffffffffffffffffffffffffffffffffffffffff1681526020018381526020018281038252600c8152602001807f52656d6f7665206f666665720000000000000000000000000000000000000000815250602001935050505060405180910390a15050565b610ce261115c565b600360008381526020019081526020016000206040518060a00160405290816000820160009054906101000a900473ffffffffffffffffffffffffffffffffffffffff1673ffffffffffffffffffffffffffffffffffffffff1673ffffffffffffffffffffffffffffffffffffffff1681526020016001820154815260200160028201548152602001600382015481526020016004820160009054906101000a900460ff161515151581525050905080602001513414610da157600080fd5b8060800151610daf57600080fd5b60036000838152602001908152602001600020600080820160006101000a81549073ffffffffffffffffffffffffffffffffffffffff02191690556001820160009055600282016000905560038201600090556004820160006101000a81549060ff0219169055505060006002826040015181548110610e2b57fe5b906000526020600020906005020160040160006101000a81548160ff021916908315150217905550600081602001511115610eb057806000015173ffffffffffffffffffffffffffffffffffffffff166108fc82602001519081150290604051600060405180830381858888f19350505050158015610eae573d6000803e3d6000fd5b505b600160009054906101000a900473ffffffffffffffffffffffffffffffffffffffff1673ffffffffffffffffffffffffffffffffffffffff166323b872dd826000015133856040518463ffffffff1660e01b8152600401808473ffffffffffffffffffffffffffffffffffffffff1673ffffffffffffffffffffffffffffffffffffffff1681526020018373ffffffffffffffffffffffffffffffffffffffff1673ffffffffffffffffffffffffffffffffffffffff1681526020018281526020019350505050600060405180830381600087803b158015610f9157600080fd5b505af1158015610fa5573d6000803e3d6000fd5b505050507fd99e4fad9ad6313b1feb588fa8e605e3a9873172f2024330c35dd2b4041a4386338360405180806020018473ffffffffffffffffffffffffffffffffffffffff1673ffffffffffffffffffffffffffffffffffffffff168152602001838152602001828103825260038152602001807f4275790000000000000000000000000000000000000000000000000000000000815250602001935050505060405180910390a15050565b6000809054906101000a900473ffffffffffffffffffffffffffffffffffffffff1681565b60008273ffffffffffffffffffffffffffffffffffffffff16600160009054906101000a900473ffffffffffffffffffffffffffffffffffffffff1673ffffffffffffffffffffffffffffffffffffffff16636352211e846040518263ffffffff1660e01b81526004018082815260200191505060206040518083038186803b15801561110257600080fd5b505afa158015611116573d6000803e3d6000fd5b505050506040513d602081101561112c57600080fd5b810190808051906020019092919050505073ffffffffffffffffffffffffffffffffffffffff1614905092915050565b6040518060a00160405280600073ffffffffffffffffffffffffffffffffffffffff168152602001600081526020016000815260200160008152602001600015158152509056fe596f7520617265206e6f74207468652073656c6c6572206f662074686174206b697474795468657265277320616c726561647920616e20616374697665206f6666657220666f72207468697320746f6b656e6f6e6c7920746865206f776e65722063616e2063726561746520616e206f66666572a265627a7a72315820d7e651cee27c13682ca6b16a28c5d9f00e99928864b121df8bb0ebc7ffa2322164736f6c63430005100032",
  "source": "pragma solidity ^0.5.0;\r\n\r\nimport \"./Ownable.sol\";\r\nimport \"./IKittyMarketplace.sol\";\r\n\r\ncontract KittyMarketPlace is Ownable, IKittyMarketPlace {\r\n    KittyContract private _kittyContract;\r\n\r\n    struct Offer {\r\n        address payable seller;\r\n        uint256 price;\r\n        uint256 index;\r\n        uint256 tokenId;\r\n        bool active;\r\n    }\r\n\r\n    Offer[] offers;\r\n\r\n    mapping(uint256 => Offer) tokenIdToOffer;\r\n\r\n    function setKittyContract(address _kittyContractAddress) public onlyOwner{\r\n        _kittyContract = KittyContract(_kittyContractAddress);\r\n    }\r\n\r\n    constructor(address _kittyContractAddress) public {\r\n      setKittyContract(_kittyContractAddress);\r\n    }\r\n\r\n    function getOffer(uint256 _tokenId) external view returns ( \r\n        address seller, uint256 price, uint256 index, uint256 tokenId, bool active){\r\n            require(tokenIdToOffer[_tokenId].active, \"no active offer for token\");\r\n\r\n            Offer storage offer = tokenIdToOffer[_tokenId];\r\n            seller = offer.seller;\r\n            price = offer.price;\r\n            index = offer.index;\r\n            tokenId = offer.tokenId;\r\n            active = offer.active;\r\n    }\r\n    function getAllTokenOnSale() external  returns(uint256[] memory listOfOffers){\r\n        uint256 totalOffers = offers.length;\r\n      \r\n      if (totalOffers == 0) {\r\n          return new uint256[](0);\r\n      } \r\n      else {\r\n        uint256[] memory result = new uint256[](totalOffers);\r\n\r\n        for (uint256 offerId = 0; offerId < totalOffers; offerId++) {\r\n          if(offers[offerId].active == true){\r\n            result[offerId] = offers[offerId].tokenId;\r\n          }\r\n        }\r\n        return result;\r\n      }\r\n\r\n    }\r\n    function _ownsKitty(address _address, uint256 _tokenId)\r\n        internal\r\n        view\r\n        returns (bool)\r\n    {\r\n        return (_kittyContract.ownerOf(_tokenId) == _address);\r\n    }\r\n\r\n\r\n    function setOffer(uint256 _price, uint256 _tokenId) external{\r\n        require (_ownsKitty(msg.sender, _tokenId), \"only the owner can create an offer\");\r\n        require(!tokenIdToOffer[_tokenId].active, \"There's already an active offer for this token\");\r\n        require(_kittyContract.getApproved(_tokenId) ==address(this));\r\n\r\n        Offer memory offer = Offer({\r\n            seller: msg.sender,\r\n            price: _price,\r\n            index: offers.length,\r\n            tokenId: _tokenId,\r\n            active: true\r\n            \r\n        });\r\n        offers.push(offer);\r\n\r\n        tokenIdToOffer[_tokenId] = offer;\r\n        emit MarketTransaction(\"Create offer\", msg.sender, _tokenId);\r\n    }\r\n\r\n    function removeOffer(uint256 _tokenId) external{\r\n        Offer memory offer = tokenIdToOffer[_tokenId];\r\n        require(\r\n            offer.seller == msg.sender,\r\n            \"You are not the seller of that kitty\"\r\n        );\r\n\r\n        delete tokenIdToOffer[_tokenId];\r\n        offers[offer.index].active = false;\r\n\r\n        emit MarketTransaction(\"Remove offer\", msg.sender, _tokenId);\r\n    }\r\n\r\n    function buyKitty(uint256 _tokenId) external payable{\r\n        Offer memory offer = tokenIdToOffer[_tokenId];\r\n        require(msg.value == offer.price);\r\n        require(offer.active);\r\n\r\n        // Important: delete the kitty from the mapping BEFORE paying out to prevent reentry attacks\r\n        delete tokenIdToOffer[_tokenId];\r\n        offers[offer.index].active = false;\r\n\r\n        // Transfer the funds to the seller\r\n        if (offer.price > 0) {\r\n            offer.seller.transfer(offer.price);\r\n        }\r\n\r\n        // Transfer ownership of the kitty\r\n        _kittyContract.transferFrom(offer.seller, msg.sender, _tokenId);\r\n\r\n        emit MarketTransaction(\"Buy\", msg.sender, _tokenId);\r\n\r\n    }\r\n}",
  "sourcePath": "C:\\Code\\CryptoKitties\\contracts\\KittyMarketplace.sol",
  "compiler": {
    "name": "solc",
    "version": "0.5.16+commit.9c3226ce.Emscripten.clang"
  },
  "schemaVersion": "3.4.3",
  "updatedAt": "2021-12-27T23:04:46.380Z",
  "networkType": "ethereum",
  "devdoc": {
    "methods": {
      "isOwner()": {
        "details": "Returns true if the caller is the current owner."
      }
    }
  },
  "userdoc": {
    "methods": {}
  }
}