{
  "contractName": "Ownable",
  "abi": [
    {
      "inputs": [],
      "payable": false,
      "stateMutability": "nonpayable",
      "type": "constructor"
    },
    {
      "constant": true,
      "inputs": [],
      "name": "_owner",
      "outputs": [
        {
          "internalType": "address",
          "name": "",
          "type": "address"
        }
      ],
      "payable": false,
      "stateMutability": "view",
      "type": "function"
    },
    {
      "constant": true,
      "inputs": [],
      "name": "isOwner",
      "outputs": [
        {
          "internalType": "bool",
          "name": "",
          "type": "bool"
        }
      ],
      "payable": false,
      "stateMutability": "view",
      "type": "function"
    }
  ],
  "bytecode": "0x608060405234801561001057600080fd5b50336000806101000a81548173ffffffffffffffffffffffffffffffffffffffff021916908373ffffffffffffffffffffffffffffffffffffffff160217905550610158806100606000396000f3fe608060405234801561001057600080fd5b50600436106100365760003560e01c80638f32d59b1461003b578063b2bdfa7b1461005d575b600080fd5b6100436100a7565b604051808215151515815260200191505060405180910390f35b6100656100fe565b604051808273ffffffffffffffffffffffffffffffffffffffff1673ffffffffffffffffffffffffffffffffffffffff16815260200191505060405180910390f35b60008060009054906101000a900473ffffffffffffffffffffffffffffffffffffffff1673ffffffffffffffffffffffffffffffffffffffff163373ffffffffffffffffffffffffffffffffffffffff1614905090565b6000809054906101000a900473ffffffffffffffffffffffffffffffffffffffff168156fea265627a7a72315820b3e30bc83f7cb364fa8f1419afc42a4da536f055c47b07e39119026763c0d3de64736f6c63430005100032",
  "source": "pragma solidity ^0.5.0;\r\n\r\ncontract Ownable {\r\n    address public _owner;\r\n\r\n    constructor () public {\r\n        _owner = msg.sender;\r\n    }\r\n\r\n    /**\r\n    * @dev Throws if called by any account other than the owner.\r\n    */\r\n    modifier onlyOwner() {\r\n        require(isOwner(), \"Ownable: caller is not the owner\");\r\n        _;\r\n    }\r\n\r\n    /**\r\n    * @dev Returns true if the caller is the current owner.\r\n    */\r\n    function isOwner() public view returns (bool) {\r\n        return (msg.sender == _owner);\r\n    }\r\n    \r\n}",
  "sourcePath": "C:\\Code\\CryptoKitties\\contracts\\Ownable.sol",
  "compiler": {
    "name": "solc",
    "version": "0.5.16+commit.9c3226ce.Emscripten.clang"
  },
  "schemaVersion": "3.4.3",
  "updatedAt": "2021-12-28T19:01:34.390Z",
  "devdoc": {
    "methods": {
      "isOwner()": {
        "details": "Returns true if the caller is the current owner."
      }
    }
  },
  "userdoc": {
    "methods": {}
  }
}